{
  "contractName": "Voting",
  "abi": [
    {
      "inputs": [],
      "stateMutability": "nonpayable",
      "type": "constructor"
    },
    {
      "anonymous": false,
      "inputs": [
        {
          "indexed": false,
          "internalType": "uint256",
          "name": "id",
          "type": "uint256"
        },
        {
          "indexed": false,
          "internalType": "string",
          "name": "name",
          "type": "string"
        }
      ],
      "name": "CandidateAdded",
      "type": "event"
    },
    {
      "anonymous": false,
      "inputs": [
        {
          "indexed": false,
          "internalType": "address",
          "name": "voter",
          "type": "address"
        },
        {
          "indexed": false,
          "internalType": "uint256",
          "name": "candidateId",
          "type": "uint256"
        }
      ],
      "name": "Voted",
      "type": "event"
    },
    {
      "anonymous": false,
      "inputs": [
        {
          "indexed": false,
          "internalType": "string",
          "name": "winnerName",
          "type": "string"
        },
        {
          "indexed": false,
          "internalType": "uint256",
          "name": "votes",
          "type": "uint256"
        }
      ],
      "name": "WinnerDeclared",
      "type": "event"
    },
    {
      "inputs": [],
      "name": "candidateFee",
      "outputs": [
        {
          "internalType": "uint256",
          "name": "",
          "type": "uint256"
        }
      ],
      "stateMutability": "view",
      "type": "function"
    },
    {
      "inputs": [
        {
          "internalType": "uint256",
          "name": "",
          "type": "uint256"
        }
      ],
      "name": "candidates",
      "outputs": [
        {
          "internalType": "uint256",
          "name": "id",
          "type": "uint256"
        },
        {
          "internalType": "string",
          "name": "name",
          "type": "string"
        },
        {
          "internalType": "uint256",
          "name": "voteCount",
          "type": "uint256"
        }
      ],
      "stateMutability": "view",
      "type": "function"
    },
    {
      "inputs": [],
      "name": "candidatesCount",
      "outputs": [
        {
          "internalType": "uint256",
          "name": "",
          "type": "uint256"
        }
      ],
      "stateMutability": "view",
      "type": "function"
    },
    {
      "inputs": [
        {
          "internalType": "address",
          "name": "",
          "type": "address"
        }
      ],
      "name": "hasVoted",
      "outputs": [
        {
          "internalType": "bool",
          "name": "",
          "type": "bool"
        }
      ],
      "stateMutability": "view",
      "type": "function"
    },
    {
      "inputs": [],
      "name": "owner",
      "outputs": [
        {
          "internalType": "address",
          "name": "",
          "type": "address"
        }
      ],
      "stateMutability": "view",
      "type": "function"
    },
    {
      "inputs": [],
      "name": "totalBalance",
      "outputs": [
        {
          "internalType": "uint256",
          "name": "",
          "type": "uint256"
        }
      ],
      "stateMutability": "view",
      "type": "function"
    },
    {
      "inputs": [
        {
          "internalType": "string",
          "name": "_name",
          "type": "string"
        }
      ],
      "name": "addCandidate",
      "outputs": [],
      "stateMutability": "payable",
      "type": "function"
    },
    {
      "inputs": [
        {
          "internalType": "uint256",
          "name": "_candidateId",
          "type": "uint256"
        }
      ],
      "name": "vote",
      "outputs": [],
      "stateMutability": "nonpayable",
      "type": "function"
    },
    {
      "inputs": [],
      "name": "getBalance",
      "outputs": [
        {
          "internalType": "uint256",
          "name": "",
          "type": "uint256"
        }
      ],
      "stateMutability": "view",
      "type": "function"
    },
    {
      "inputs": [],
      "name": "determineWinner",
      "outputs": [
        {
          "internalType": "string",
          "name": "",
          "type": "string"
        }
      ],
      "stateMutability": "view",
      "type": "function"
    }
  ],
  "bytecode": "0x6080604052662386f26fc1000060015534801561001a575f80fd5b50335f806101000a81548173ffffffffffffffffffffffffffffffffffffffff021916908373ffffffffffffffffffffffffffffffffffffffff1602179055506111b1806100675f395ff3fe608060405260043610610090575f3560e01c80633477ee2e116100585780633477ee2e14610176578063462e91ec146101b45780636f25cd32146101d05780638da5cb5b146101fa578063ad7a672f1461022457610090565b80630121b93f1461009457806309eef43e146100bc57806312065fe0146100f85780632d35a8a21461012257806333b16d931461014c575b5f80fd5b34801561009f575f80fd5b506100ba60048036038101906100b591906107fc565b61024e565b005b3480156100c7575f80fd5b506100e260048036038101906100dd9190610881565b6103d6565b6040516100ef91906108c6565b60405180910390f35b348015610103575f80fd5b5061010c6103f3565b60405161011991906108ee565b60405180910390f35b34801561012d575f80fd5b506101366103fc565b60405161014391906108ee565b60405180910390f35b348015610157575f80fd5b50610160610402565b60405161016d9190610991565b60405180910390f35b348015610181575f80fd5b5061019c600480360381019061019791906107fc565b6105d1565b6040516101ab939291906109b1565b60405180910390f35b6101ce60048036038101906101c99190610b19565b61067d565b005b3480156101db575f80fd5b506101e4610789565b6040516101f191906108ee565b60405180910390f35b348015610205575f80fd5b5061020e61078f565b60405161021b9190610b6f565b60405180910390f35b34801561022f575f80fd5b506102386107b2565b60405161024591906108ee565b60405180910390f35b60035f3373ffffffffffffffffffffffffffffffffffffffff1673ffffffffffffffffffffffffffffffffffffffff1681526020019081526020015f205f9054906101000a900460ff16156102d8576040517f08c379a00000000000000000000000000000000000000000000000000000000081526004016102cf90610bd2565b60405180910390fd5b600454811061031c576040517f08c379a000000000000000000000000000000000000000000000000000000000815260040161031390610c3a565b60405180910390fd5b600160035f3373ffffffffffffffffffffffffffffffffffffffff1673ffffffffffffffffffffffffffffffffffffffff1681526020019081526020015f205f6101000a81548160ff02191690831515021790555060025f8281526020019081526020015f206002015f81548092919061039590610c85565b91905055507f4d99b957a2bc29a30ebd96a7be8e68fe50a3c701db28a91436490b7d53870ca433826040516103cb929190610ccc565b60405180910390a150565b6003602052805f5260405f205f915054906101000a900460ff1681565b5f600554905090565b60045481565b60605f8054906101000a900473ffffffffffffffffffffffffffffffffffffffff1673ffffffffffffffffffffffffffffffffffffffff163373ffffffffffffffffffffffffffffffffffffffff1614610491576040517f08c379a000000000000000000000000000000000000000000000000000000000815260040161048890610d63565b60405180910390fd5b5f600454116104d5576040517f08c379a00000000000000000000000000000000000000000000000000000000081526004016104cc90610dcb565b60405180910390fd5b5f60605f5b6004548110156105c8578260025f8381526020019081526020015f206002015411156105b55760025f8281526020019081526020015f2060020154925060025f8281526020019081526020015f20600101805461053690610e16565b80601f016020809104026020016040519081016040528092919081815260200182805461056290610e16565b80156105ad5780601f10610584576101008083540402835291602001916105ad565b820191905f5260205f20905b81548152906001019060200180831161059057829003601f168201915b505050505091505b80806105c090610c85565b9150506104da565b50809250505090565b6002602052805f5260405f205f91509050805f0154908060010180546105f690610e16565b80601f016020809104026020016040519081016040528092919081815260200182805461062290610e16565b801561066d5780601f106106445761010080835404028352916020019161066d565b820191905f5260205f20905b81548152906001019060200180831161065057829003601f168201915b5050505050908060020154905083565b60015434146106c1576040517f08c379a00000000000000000000000000000000000000000000000000000000081526004016106b890610e90565b60405180910390fd5b604051806060016040528060045481526020018281526020015f81525060025f60045481526020019081526020015f205f820151815f0155602082015181600101908161070e919061104b565b50604082015181600201559050503460055f82825461072d919061111a565b925050819055507fe83b2a43e7e82d975c8a0a6d2f045153c869e111136a34d1889ab7b598e396a36004548260405161076792919061114d565b60405180910390a160045f81548092919061078190610c85565b919050555050565b60015481565b5f8054906101000a900473ffffffffffffffffffffffffffffffffffffffff1681565b60055481565b5f604051905090565b5f80fd5b5f80fd5b5f819050919050565b6107db816107c9565b81146107e5575f80fd5b50565b5f813590506107f6816107d2565b92915050565b5f60208284031215610811576108106107c1565b5b5f61081e848285016107e8565b91505092915050565b5f73ffffffffffffffffffffffffffffffffffffffff82169050919050565b5f61085082610827565b9050919050565b61086081610846565b811461086a575f80fd5b50565b5f8135905061087b81610857565b92915050565b5f60208284031215610896576108956107c1565b5b5f6108a38482850161086d565b91505092915050565b5f8115159050919050565b6108c0816108ac565b82525050565b5f6020820190506108d95f8301846108b7565b92915050565b6108e8816107c9565b82525050565b5f6020820190506109015f8301846108df565b92915050565b5f81519050919050565b5f82825260208201905092915050565b5f5b8381101561093e578082015181840152602081019050610923565b5f8484015250505050565b5f601f19601f8301169050919050565b5f61096382610907565b61096d8185610911565b935061097d818560208601610921565b61098681610949565b840191505092915050565b5f6020820190508181035f8301526109a98184610959565b905092915050565b5f6060820190506109c45f8301866108df565b81810360208301526109d68185610959565b90506109e560408301846108df565b949350505050565b5f80fd5b5f80fd5b7f4e487b71000000000000000000000000000000000000000000000000000000005f52604160045260245ffd5b610a2b82610949565b810181811067ffffffffffffffff82111715610a4a57610a496109f5565b5b80604052505050565b5f610a5c6107b8565b9050610a688282610a22565b919050565b5f67ffffffffffffffff821115610a8757610a866109f5565b5b610a9082610949565b9050602081019050919050565b828183375f83830152505050565b5f610abd610ab884610a6d565b610a53565b905082815260208101848484011115610ad957610ad86109f1565b5b610ae4848285610a9d565b509392505050565b5f82601f830112610b0057610aff6109ed565b5b8135610b10848260208601610aab565b91505092915050565b5f60208284031215610b2e57610b2d6107c1565b5b5f82013567ffffffffffffffff811115610b4b57610b4a6107c5565b5b610b5784828501610aec565b91505092915050565b610b6981610846565b82525050565b5f602082019050610b825f830184610b60565b92915050565b7f596f75206861766520616c726561647920766f746564000000000000000000005f82015250565b5f610bbc601683610911565b9150610bc782610b88565b602082019050919050565b5f6020820190508181035f830152610be981610bb0565b9050919050565b7f496e76616c69642063616e6469646174652049440000000000000000000000005f82015250565b5f610c24601483610911565b9150610c2f82610bf0565b602082019050919050565b5f6020820190508181035f830152610c5181610c18565b9050919050565b7f4e487b71000000000000000000000000000000000000000000000000000000005f52601160045260245ffd5b5f610c8f826107c9565b91507fffffffffffffffffffffffffffffffffffffffffffffffffffffffffffffffff8203610cc157610cc0610c58565b5b600182019050919050565b5f604082019050610cdf5f830185610b60565b610cec60208301846108df565b9392505050565b7f4f6e6c79206f776e65722063616e20706572666f726d207468697320616374695f8201527f6f6e000000000000000000000000000000000000000000000000000000000000602082015250565b5f610d4d602283610911565b9150610d5882610cf3565b604082019050919050565b5f6020820190508181035f830152610d7a81610d41565b9050919050565b7f4e6f2063616e6469646174657320617661696c61626c650000000000000000005f82015250565b5f610db5601783610911565b9150610dc082610d81565b602082019050919050565b5f6020820190508181035f830152610de281610da9565b9050919050565b7f4e487b71000000000000000000000000000000000000000000000000000000005f52602260045260245ffd5b5f6002820490506001821680610e2d57607f821691505b602082108103610e4057610e3f610de9565b5b50919050565b7f496e636f72726563742066656520616d6f756e740000000000000000000000005f82015250565b5f610e7a601483610911565b9150610e8582610e46565b602082019050919050565b5f6020820190508181035f830152610ea781610e6e565b9050919050565b5f819050815f5260205f209050919050565b5f6020601f8301049050919050565b5f82821b905092915050565b5f60088302610f0a7fffffffffffffffffffffffffffffffffffffffffffffffffffffffffffffffff82610ecf565b610f148683610ecf565b95508019841693508086168417925050509392505050565b5f819050919050565b5f610f4f610f4a610f45846107c9565b610f2c565b6107c9565b9050919050565b5f819050919050565b610f6883610f35565b610f7c610f7482610f56565b848454610edb565b825550505050565b5f90565b610f90610f84565b610f9b818484610f5f565b505050565b5b81811015610fbe57610fb35f82610f88565b600181019050610fa1565b5050565b601f82111561100357610fd481610eae565b610fdd84610ec0565b81016020851015610fec578190505b611000610ff885610ec0565b830182610fa0565b50505b505050565b5f82821c905092915050565b5f6110235f1984600802611008565b1980831691505092915050565b5f61103b8383611014565b9150826002028217905092915050565b61105482610907565b67ffffffffffffffff81111561106d5761106c6109f5565b5b6110778254610e16565b611082828285610fc2565b5f60209050601f8311600181146110b3575f84156110a1578287015190505b6110ab8582611030565b865550611112565b601f1984166110c186610eae565b5f5b828110156110e8578489015182556001820191506020850194506020810190506110c3565b868310156111055784890151611101601f891682611014565b8355505b6001600288020188555050505b505050505050565b5f611124826107c9565b915061112f836107c9565b925082820190508082111561114757611146610c58565b5b92915050565b5f6040820190506111605f8301856108df565b81810360208301526111728184610959565b9050939250505056fea264697066735822122031367b3086a75a24f3a079d4a0cdf573a7eea83a658e9da0ee21dc50395227aa64736f6c63430008140033",
  "immutableReferences": {},
  "source": "// SPDX-License-Identifier: GPL-3.0\r\n\r\npragma solidity ^0.8.0;\r\n\r\ncontract Voting {\r\n    struct Candidate {\r\n        uint id;\r\n        string name;\r\n        uint voteCount;\r\n    }\r\n\r\n    address public owner;\r\n    uint public candidateFee = 0.01 ether;\r\n    mapping(uint => Candidate) public candidates;\r\n    mapping(address => bool) public hasVoted;\r\n    uint public candidatesCount;\r\n    uint public totalBalance;\r\n    \r\n    event CandidateAdded(uint id, string name);\r\n    event Voted(address voter, uint candidateId);\r\n    event WinnerDeclared(string winnerName, uint votes);\r\n\r\n    modifier onlyOwner() {\r\n        require(msg.sender == owner, \"Only owner can perform this action\");\r\n        _;\r\n    }\r\n\r\n    constructor() {\r\n        owner = msg.sender;\r\n    }\r\n\r\n    function addCandidate(string memory _name) public payable {\r\n        require(msg.value == candidateFee, \"Incorrect fee amount\");\r\n        candidates[candidatesCount] = Candidate(candidatesCount, _name, 0);\r\n        totalBalance += msg.value;\r\n        emit CandidateAdded(candidatesCount, _name);\r\n        candidatesCount++;\r\n    }\r\n\r\n    function vote(uint _candidateId) public {\r\n        require(!hasVoted[msg.sender], \"You have already voted\");\r\n        require(_candidateId < candidatesCount, \"Invalid candidate ID\");\r\n        \r\n        hasVoted[msg.sender] = true;\r\n        candidates[_candidateId].voteCount++;\r\n        emit Voted(msg.sender, _candidateId);\r\n    }\r\n\r\n    function getBalance() public view returns (uint) {\r\n        return totalBalance;\r\n    }\r\n\r\n    function determineWinner() public view onlyOwner returns (string memory) {\r\n        require(candidatesCount > 0, \"No candidates available\");\r\n        \r\n        uint maxVotes = 0;\r\n        string memory winner;\r\n        for (uint i = 0; i < candidatesCount; i++) {\r\n            if (candidates[i].voteCount > maxVotes) {\r\n                maxVotes = candidates[i].voteCount;\r\n                winner = candidates[i].name;\r\n            }\r\n        }\r\n        \r\n        return winner;\r\n    }\r\n}\r\n",
  "sourcePath": "C:\\Users\\vlad\\voting-project\\contracts\\Voting.sol",
  "compiler": {
    "name": "solc",
    "version": "0.8.20+commit.a1b79de6.Emscripten.clang"
  },
  "schemaVersion": "3.4.16",
  "updatedAt": "2025-03-07T15:14:15.275Z",
  "devdoc": {
    "kind": "dev",
    "methods": {},
    "version": 1
  },
  "userdoc": {
    "kind": "user",
    "methods": {},
    "version": 1
  }
}